:100000000C945D000C9485000C9485000C94850084
:100010000C9485000C9485000C9485000C9485004C
:100020000C9485000C9485000C9485000C9485003C
:100030000C9485000C9485000C9485000C9485002C
:100040000C9418020C9485000C9488020C946202A3
:100050000C9485000C9485000C9485000C9485000C
:100060000C9485000C9485000000000024002700FB
:100070002A0000000000250028002B0004040404CE
:100080000404040402020202020203030303030342
:10009000010204081020408001020408102001021F
:1000A00004081020000000080002010000030407FB
:1000B0000000000000000000C40311241FBECFEFA9
:1000C000D8E0DEBFCDBF11E0A0E0B1E0E2EFF7E0A5
:1000D00002C005900D92A234B107D9F721E0A2E445
:1000E000B1E001C01D92A93EB207E1F710E0CDE5F5
:1000F000D0E004C02197FE010E94F103CC35D10766
:10010000C9F70E94BA020C94F7030C940000EEEABF
:10011000F0E02491EAE9F0E09491E6E8F0E0E4917F
:10012000EE23C9F0222339F0233001F1A8F4213065
:1001300019F1223029F1F0E0EE0FFF1FEE58FF4FCA
:10014000A591B4912FB7F894EC91811126C09095A8
:100150009E239C932FBF08952730A9F02830C9F023
:10016000243049F7209180002F7D03C0209180002A
:100170002F7720938000DFCF24B52F7724BDDBCFEE
:1001800024B52F7DFBCF2091B0002F772093B000B6
:10019000D2CF2091B0002F7DF9CF9E2BDACF90E007
:1001A000FC01E057FF4F249184589F4FFC0184913C
:1001B000882399F090E0880F991FFC01E859FF4FC0
:1001C000A591B491FC01EE58FF4F859194918FB7A2
:1001D000F894EC91E22BEC938FBF0895AF92BF920D
:1001E000CF92DF92EF92FF920F931F93CF93DF9303
:1001F0006C017B018B01040F151FEB015E01AE1832
:10020000BF08C017D10759F06991D601ED91FC9153
:100210000190F081E02DC6010995892B79F7C50180
:10022000DF91CF911F910F91FF90EF90DF90CF90D2
:10023000BF90AF900895FC01538D448D252F30E081
:10024000842F90E0821B930B541710F0CF960895E3
:1002500001970895FC01918D828D981761F0A28D10
:10026000AE0FBF2FB11D5D968C91928D9F5F9F73D6
:10027000928F90E008958FEF9FEF0895FC01918D8C
:10028000828D981731F0828DE80FF11D858D90E0F9
:1002900008958FEF9FEF0895FC01918D228D892F96
:1002A00090E0805C9F4F821B91098F73992708957E
:1002B0008CE491E00E944C0121E0892B09F420E0BC
:1002C000822F089580E090E0892B29F00E94580148
:1002D00081110C9400000895FC01A48DA80FB92F82
:1002E000B11DA35ABF4F2C91848D90E001968F735E
:1002F0009927848FA689B7892C93A089B1898C917D
:10030000837080648C93938D848D981306C00288CB
:10031000F389E02D80818F7D80830895EF92FF9295
:100320000F931F93CF93DF93EC0181E0888F9B8D18
:100330008C8D98131AC0E889F989808185FF15C0D2
:100340009FB7F894EE89FF896083E889F9898081F5
:100350008370806480839FBF81E090E0DF91CF91C4
:100360001F910F91FF90EF900895F62E0B8D10E0E6
:100370000F5F1F4F0F731127E02E8C8D8E110CC055
:100380000FB607FCFACFE889F989808185FFF5CFA0
:10039000CE010E946C01F1CFEB8DEC0FFD2FF11D12
:1003A000E35AFF4FF0829FB7F8940B8FEA89FB89DD
:1003B00080818062CFCFCF93DF93EC01888D88233B
:1003C000B9F0AA89BB89E889F9898C9185FD03C0B8
:1003D000808186FD0DC00FB607FCF7CF8C9185FF9D
:1003E000F2CF808185FFEDCFCE010E946C01E9CF75
:1003F000DF91CF910895CF93DF93FC01019000200E
:10040000E9F73197AF01481B590BBC018CE491E02F
:100410000E94EE00EC0142E050E062E171E08CE409
:1004200091E00E94EE008C0F9D1FDF91CF91089507
:100430001F920F920FB60F9211242F933F938F9319
:100440009F93AF93BF938091480190914901A091F0
:100450004A01B0914B013091470123E0230F2D3722
:1004600058F50196A11DB11D2093470180934801C5
:1004700090934901A0934A01B0934B0180914301AD
:1004800090914401A0914501B09146010196A11DB2
:10049000B11D8093430190934401A0934501B09313
:1004A0004601BF91AF919F918F913F912F910F90F6
:1004B0000FBE0F901F90189526E8230F0296A11DDE
:1004C000B11DD2CF1F920F920FB60F9211242F930E
:1004D0003F934F935F936F937F938F939F93AF93CC
:1004E000BF93EF93FF938CE491E00E946C01FF9126
:1004F000EF91BF91AF919F918F917F916F915F919C
:100500004F913F912F910F900FBE0F901F90189514
:100510001F920F920FB60F9211242F938F939F93D8
:10052000EF93FF93E0915C01F0915D018081E09198
:100530006201F091630182FD1BC090818091650191
:100540008F5F8F7320916601821741F0E091650102
:10055000F0E0E45BFE4F958F80936501FF91EF9192
:100560009F918F912F910F900FBE0F901F90189514
:100570008081F4CFCF93DF93CDB7DEB72E970FB640
:10058000F894DEBF0FBECDBF789484B5826084BD81
:1005900084B5816084BD85B5826085BD85B5816087
:1005A00085BD80916E00816080936E001092810005
:1005B00080918100826080938100809181008160C0
:1005C0008093810080918000816080938000809181
:1005D000B10084608093B1008091B000816080930D
:1005E000B00080917A00846080937A0080917A00D4
:1005F000826080937A0080917A00816080937A0093
:1006000080917A00806880937A001092C1008EE019
:10061000E4E3F1E08E010F5F1F4FD80101900D92CE
:100620008A95E1F7E0915C01F0915D0182E08083C1
:10063000E0915801F09159011082E0915A01F09136
:100640005B0180E1808310926401E0916001F09190
:10065000610186E08083E0915E01F0915F0180811D
:1006600080618083E0915E01F0915F01808188600C
:100670008083E0915E01F0915F01808180688083DA
:10068000E0915E01F0915F0180818F7D80838AE03F
:100690000E94CF0080E00E948700FFB6F89480910E
:1006A0004201811123C0E6E8F0E08491EAE9F0E03C
:1006B0009491E82FF0E0EE0FFF1FE859FF4FA5914E
:1006C000B491EC91E92319F481E00E9487008AE05B
:1006D0000E94CF008CB580618CBD8CB580648CBDD0
:1006E0008DE00E94CF008BE00E94CF0080914201FC
:1006F0008F5F80934201FFBEF80101900020E9F76F
:10070000CF010197801B910BC1F029812EBDF8010B
:100710009C012150310941F051810DB407FEFDCFFC
:100720004EB55EBD4193F5CF0197F801E80FF91F73
:100730000DB407FEFDCF8EB580839FB7F8948091EE
:100740004201882319F08150809342018091420137
:10075000811103C08CB58F7B8CBD9FBF81E00E944F
:10076000870085E191E00E94FB01C8010E94FB0126
:1007700000E010E001151105E9F30E9458018823FB
:10078000C9F30E940000F6CFECE4F1E0138212827C
:1007900088EE93E0A0E0B0E084839583A683B783DE
:1007A00084E091E09183808385EC90E09587848755
:1007B00084EC90E09787868780EC90E0918B808B2B
:1007C00081EC90E0938B828B82EC90E0958B848B14
:1007D00086EC90E0978B868B118E128E138E148E82
:1007E0000895EE0FFF1F0590F491E02D0994F89401
:0207F000FFCF39
:1007F200000000008E01EE001B01DB014C012A010A
:100802003E010D0A00446174612072656365697678
:1008120065642066726F6D20535049206465766965
:1008220063653A0055727979622C204D6F4F4D21E4
:020832002000A4
:00000001FF
